{
  "abi": [
    {
      "type": "constructor",
      "inputs": [
        {
          "name": "token_",
          "type": "address",
          "internalType": "contract IERC20"
        }
      ],
      "stateMutability": "nonpayable"
    },
    {
      "type": "function",
      "name": "balanceOf",
      "inputs": [
        {
          "name": "",
          "type": "address",
          "internalType": "address"
        }
      ],
      "outputs": [
        {
          "name": "",
          "type": "uint256",
          "internalType": "uint256"
        }
      ],
      "stateMutability": "view"
    },
    {
      "type": "function",
      "name": "collateralToken",
      "inputs": [],
      "outputs": [
        {
          "name": "",
          "type": "address",
          "internalType": "address"
        }
      ],
      "stateMutability": "view"
    },
    {
      "type": "function",
      "name": "controller",
      "inputs": [],
      "outputs": [
        {
          "name": "",
          "type": "address",
          "internalType": "address"
        }
      ],
      "stateMutability": "view"
    },
    {
      "type": "function",
      "name": "deposit",
      "inputs": [
        {
          "name": "amount",
          "type": "uint256",
          "internalType": "uint256"
        },
        {
          "name": "onBehalfOf",
          "type": "address",
          "internalType": "address"
        }
      ],
      "outputs": [],
      "stateMutability": "nonpayable"
    },
    {
      "type": "function",
      "name": "owner",
      "inputs": [],
      "outputs": [
        {
          "name": "",
          "type": "address",
          "internalType": "address"
        }
      ],
      "stateMutability": "view"
    },
    {
      "type": "function",
      "name": "renounceOwnership",
      "inputs": [],
      "outputs": [],
      "stateMutability": "nonpayable"
    },
    {
      "type": "function",
      "name": "seize",
      "inputs": [
        {
          "name": "from",
          "type": "address",
          "internalType": "address"
        },
        {
          "name": "amount",
          "type": "uint256",
          "internalType": "uint256"
        },
        {
          "name": "to",
          "type": "address",
          "internalType": "address"
        }
      ],
      "outputs": [],
      "stateMutability": "nonpayable"
    },
    {
      "type": "function",
      "name": "setController",
      "inputs": [
        {
          "name": "controller_",
          "type": "address",
          "internalType": "address"
        }
      ],
      "outputs": [],
      "stateMutability": "nonpayable"
    },
    {
      "type": "function",
      "name": "token",
      "inputs": [],
      "outputs": [
        {
          "name": "",
          "type": "address",
          "internalType": "contract IERC20"
        }
      ],
      "stateMutability": "view"
    },
    {
      "type": "function",
      "name": "transferOwnership",
      "inputs": [
        {
          "name": "newOwner",
          "type": "address",
          "internalType": "address"
        }
      ],
      "outputs": [],
      "stateMutability": "nonpayable"
    },
    {
      "type": "function",
      "name": "withdraw",
      "inputs": [
        {
          "name": "amount",
          "type": "uint256",
          "internalType": "uint256"
        },
        {
          "name": "to",
          "type": "address",
          "internalType": "address"
        }
      ],
      "outputs": [],
      "stateMutability": "nonpayable"
    },
    {
      "type": "event",
      "name": "ControllerUpdated",
      "inputs": [
        {
          "name": "controller",
          "type": "address",
          "indexed": true,
          "internalType": "address"
        }
      ],
      "anonymous": false
    },
    {
      "type": "event",
      "name": "Deposited",
      "inputs": [
        {
          "name": "user",
          "type": "address",
          "indexed": true,
          "internalType": "address"
        },
        {
          "name": "amount",
          "type": "uint256",
          "indexed": false,
          "internalType": "uint256"
        }
      ],
      "anonymous": false
    },
    {
      "type": "event",
      "name": "OwnershipTransferred",
      "inputs": [
        {
          "name": "previousOwner",
          "type": "address",
          "indexed": true,
          "internalType": "address"
        },
        {
          "name": "newOwner",
          "type": "address",
          "indexed": true,
          "internalType": "address"
        }
      ],
      "anonymous": false
    },
    {
      "type": "event",
      "name": "Seized",
      "inputs": [
        {
          "name": "from",
          "type": "address",
          "indexed": true,
          "internalType": "address"
        },
        {
          "name": "amount",
          "type": "uint256",
          "indexed": false,
          "internalType": "uint256"
        },
        {
          "name": "to",
          "type": "address",
          "indexed": true,
          "internalType": "address"
        }
      ],
      "anonymous": false
    },
    {
      "type": "event",
      "name": "Withdrawn",
      "inputs": [
        {
          "name": "user",
          "type": "address",
          "indexed": true,
          "internalType": "address"
        },
        {
          "name": "amount",
          "type": "uint256",
          "indexed": false,
          "internalType": "uint256"
        },
        {
          "name": "to",
          "type": "address",
          "indexed": true,
          "internalType": "address"
        }
      ],
      "anonymous": false
    },
    {
      "type": "error",
      "name": "OwnableInvalidOwner",
      "inputs": [
        {
          "name": "owner",
          "type": "address",
          "internalType": "address"
        }
      ]
    },
    {
      "type": "error",
      "name": "OwnableUnauthorizedAccount",
      "inputs": [
        {
          "name": "account",
          "type": "address",
          "internalType": "address"
        }
      ]
    },
    {
      "type": "error",
      "name": "SafeERC20FailedOperation",
      "inputs": [
        {
          "name": "token",
          "type": "address",
          "internalType": "address"
        }
      ]
    }
  ],
  "bytecode": {
    "object": "0x60a060405234801561000f575f5ffd5b506040516112593803806112598339818101604052810190610031919061021c565b335f73ffffffffffffffffffffffffffffffffffffffff168173ffffffffffffffffffffffffffffffffffffffff16036100a2575f6040517f1e4fbdf70000000000000000000000000000000000000000000000000000000081526004016100999190610256565b60405180910390fd5b6100b1816100ec60201b60201c565b508073ffffffffffffffffffffffffffffffffffffffff1660808173ffffffffffffffffffffffffffffffffffffffff16815250505061026f565b5f5f5f9054906101000a900473ffffffffffffffffffffffffffffffffffffffff169050815f5f6101000a81548173ffffffffffffffffffffffffffffffffffffffff021916908373ffffffffffffffffffffffffffffffffffffffff1602179055508173ffffffffffffffffffffffffffffffffffffffff168173ffffffffffffffffffffffffffffffffffffffff167f8be0079c531659141344cd1fd0a4f28419497f9722a3daafe3b4186f6b6457e060405160405180910390a35050565b5f5ffd5b5f73ffffffffffffffffffffffffffffffffffffffff82169050919050565b5f6101da826101b1565b9050919050565b5f6101eb826101d0565b9050919050565b6101fb816101e1565b8114610205575f5ffd5b50565b5f81519050610216816101f2565b92915050565b5f60208284031215610231576102306101ad565b5b5f61023e84828501610208565b91505092915050565b610250816101d0565b82525050565b5f6020820190506102695f830184610247565b92915050565b608051610fb66102a35f395f8181610304015281816103fb015281816105c50152818161075201526108ab0152610fb65ff3fe608060405234801561000f575f5ffd5b50600436106100a6575f3560e01c806392eefe9b1161006f57806392eefe9b1461013a578063b2016bd414610156578063c04fb7c314610174578063f2fde38b14610190578063f77c4791146101ac578063fc0c546a146101ca576100a6565b8062f714ce146100aa5780636e553f65146100c657806370a08231146100e2578063715018a6146101125780638da5cb5b1461011c575b5f5ffd5b6100c460048036038101906100bf9190610c28565b6101e8565b005b6100e060048036038101906100db9190610c28565b6103b1565b005b6100fc60048036038101906100f79190610c66565b6104e5565b6040516101099190610ca0565b60405180910390f35b61011a6104fa565b005b61012461050d565b6040516101319190610cc8565b60405180910390f35b610154600480360381019061014f9190610c66565b610534565b005b61015e6105c2565b60405161016b9190610cc8565b60405180910390f35b61018e60048036038101906101899190610ce1565b6105e9565b005b6101aa60048036038101906101a59190610c66565b610800565b005b6101b4610884565b6040516101c19190610cc8565b60405180910390f35b6101d26108a9565b6040516101df9190610d8c565b60405180910390f35b5f821161022a576040517f08c379a000000000000000000000000000000000000000000000000000000000815260040161022190610dff565b60405180910390fd5b8160015f3373ffffffffffffffffffffffffffffffffffffffff1673ffffffffffffffffffffffffffffffffffffffff1681526020019081526020015f205410156102aa576040517f08c379a00000000000000000000000000000000000000000000000000000000081526004016102a190610e67565b60405180910390fd5b8160015f3373ffffffffffffffffffffffffffffffffffffffff1673ffffffffffffffffffffffffffffffffffffffff1681526020019081526020015f205f8282546102f69190610eb2565b9250508190555061034881837f000000000000000000000000000000000000000000000000000000000000000073ffffffffffffffffffffffffffffffffffffffff166108cd9092919063ffffffff16565b8073ffffffffffffffffffffffffffffffffffffffff163373ffffffffffffffffffffffffffffffffffffffff167fcbcdbdf10631a43cc99c80acace8232649421c3f4f73919f16013d47c83a687a846040516103a59190610ca0565b60405180910390a35050565b5f82116103f3576040517f08c379a00000000000000000000000000000000000000000000000000000000081526004016103ea90610dff565b60405180910390fd5b6104403330847f000000000000000000000000000000000000000000000000000000000000000073ffffffffffffffffffffffffffffffffffffffff16610920909392919063ffffffff16565b8160015f8373ffffffffffffffffffffffffffffffffffffffff1673ffffffffffffffffffffffffffffffffffffffff1681526020019081526020015f205f82825461048c9190610ee5565b925050819055508073ffffffffffffffffffffffffffffffffffffffff167f2da466a7b24304f47e87fa2e1e5a81b9831ce54fec19055ce277ca2f39ba42c4836040516104d99190610ca0565b60405180910390a25050565b6001602052805f5260405f205f915090505481565b610502610975565b61050b5f6109fc565b565b5f5f5f9054906101000a900473ffffffffffffffffffffffffffffffffffffffff16905090565b61053c610975565b8060025f6101000a81548173ffffffffffffffffffffffffffffffffffffffff021916908373ffffffffffffffffffffffffffffffffffffffff1602179055508073ffffffffffffffffffffffffffffffffffffffff167f1304018cfe79741dcf02ba6b61d39cc4757d59395d03224d9925c7aa8300214660405160405180910390a250565b5f7f0000000000000000000000000000000000000000000000000000000000000000905090565b60025f9054906101000a900473ffffffffffffffffffffffffffffffffffffffff1673ffffffffffffffffffffffffffffffffffffffff163373ffffffffffffffffffffffffffffffffffffffff1614610678576040517f08c379a000000000000000000000000000000000000000000000000000000000815260040161066f90610f62565b60405180910390fd5b8160015f8573ffffffffffffffffffffffffffffffffffffffff1673ffffffffffffffffffffffffffffffffffffffff1681526020019081526020015f205410156106f8576040517f08c379a00000000000000000000000000000000000000000000000000000000081526004016106ef90610e67565b60405180910390fd5b8160015f8573ffffffffffffffffffffffffffffffffffffffff1673ffffffffffffffffffffffffffffffffffffffff1681526020019081526020015f205f8282546107449190610eb2565b9250508190555061079681837f000000000000000000000000000000000000000000000000000000000000000073ffffffffffffffffffffffffffffffffffffffff166108cd9092919063ffffffff16565b8073ffffffffffffffffffffffffffffffffffffffff168373ffffffffffffffffffffffffffffffffffffffff167fd1c54949c80b3cd0239782d12115d5ab6a21848082dc28272d8cf0fc8c3ab793846040516107f39190610ca0565b60405180910390a3505050565b610808610975565b5f73ffffffffffffffffffffffffffffffffffffffff168173ffffffffffffffffffffffffffffffffffffffff1603610878575f6040517f1e4fbdf700000000000000000000000000000000000000000000000000000000815260040161086f9190610cc8565b60405180910390fd5b610881816109fc565b50565b60025f9054906101000a900473ffffffffffffffffffffffffffffffffffffffff1681565b7f000000000000000000000000000000000000000000000000000000000000000081565b6108da8383836001610abd565b61091b57826040517f5274afe70000000000000000000000000000000000000000000000000000000081526004016109129190610cc8565b60405180910390fd5b505050565b61092e848484846001610b1f565b61096f57836040517f5274afe70000000000000000000000000000000000000000000000000000000081526004016109669190610cc8565b60405180910390fd5b50505050565b61097d610b90565b73ffffffffffffffffffffffffffffffffffffffff1661099b61050d565b73ffffffffffffffffffffffffffffffffffffffff16146109fa576109be610b90565b6040517f118cdaa70000000000000000000000000000000000000000000000000000000081526004016109f19190610cc8565b60405180910390fd5b565b5f5f5f9054906101000a900473ffffffffffffffffffffffffffffffffffffffff169050815f5f6101000a81548173ffffffffffffffffffffffffffffffffffffffff021916908373ffffffffffffffffffffffffffffffffffffffff1602179055508173ffffffffffffffffffffffffffffffffffffffff168173ffffffffffffffffffffffffffffffffffffffff167f8be0079c531659141344cd1fd0a4f28419497f9722a3daafe3b4186f6b6457e060405160405180910390a35050565b5f5f63a9059cbb60e01b9050604051815f525f1960601c86166004528460245260205f60445f5f8b5af1925060015f51148316610b11578383151615610b05573d5f823e3d81fd5b5f873b113d1516831692505b806040525050949350505050565b5f5f6323b872dd60e01b9050604051815f525f1960601c87166004525f1960601c86166024528460445260205f60645f5f8c5af1925060015f51148316610b7d578383151615610b71573d5f823e3d81fd5b5f883b113d1516831692505b806040525f606052505095945050505050565b5f33905090565b5f5ffd5b5f819050919050565b610bad81610b9b565b8114610bb7575f5ffd5b50565b5f81359050610bc881610ba4565b92915050565b5f73ffffffffffffffffffffffffffffffffffffffff82169050919050565b5f610bf782610bce565b9050919050565b610c0781610bed565b8114610c11575f5ffd5b50565b5f81359050610c2281610bfe565b92915050565b5f5f60408385031215610c3e57610c3d610b97565b5b5f610c4b85828601610bba565b9250506020610c5c85828601610c14565b9150509250929050565b5f60208284031215610c7b57610c7a610b97565b5b5f610c8884828501610c14565b91505092915050565b610c9a81610b9b565b82525050565b5f602082019050610cb35f830184610c91565b92915050565b610cc281610bed565b82525050565b5f602082019050610cdb5f830184610cb9565b92915050565b5f5f5f60608486031215610cf857610cf7610b97565b5b5f610d0586828701610c14565b9350506020610d1686828701610bba565b9250506040610d2786828701610c14565b9150509250925092565b5f819050919050565b5f610d54610d4f610d4a84610bce565b610d31565b610bce565b9050919050565b5f610d6582610d3a565b9050919050565b5f610d7682610d5b565b9050919050565b610d8681610d6c565b82525050565b5f602082019050610d9f5f830184610d7d565b92915050565b5f82825260208201905092915050565b7f616d6f756e743d300000000000000000000000000000000000000000000000005f82015250565b5f610de9600883610da5565b9150610df482610db5565b602082019050919050565b5f6020820190508181035f830152610e1681610ddd565b9050919050565b7f696e73756666696369656e7400000000000000000000000000000000000000005f82015250565b5f610e51600c83610da5565b9150610e5c82610e1d565b602082019050919050565b5f6020820190508181035f830152610e7e81610e45565b9050919050565b7f4e487b71000000000000000000000000000000000000000000000000000000005f52601160045260245ffd5b5f610ebc82610b9b565b9150610ec783610b9b565b9250828203905081811115610edf57610ede610e85565b5b92915050565b5f610eef82610b9b565b9150610efa83610b9b565b9250828201905080821115610f1257610f11610e85565b5b92915050565b7f756e617574686f72697a656400000000000000000000000000000000000000005f82015250565b5f610f4c600c83610da5565b9150610f5782610f18565b602082019050919050565b5f6020820190508181035f830152610f7981610f40565b905091905056fea2646970667358221220a5cf0bfa341d859011d31634955da4e886fdf3f52bfda0fe45c62a6bc321e85864736f6c634300081c0033",
    "linkReferences": {}
  },
  "methodIdentifiers": {
    "balanceOf(address)": "70a08231",
    "collateralToken()": "b2016bd4",
    "controller()": "f77c4791",
    "deposit(uint256,address)": "6e553f65",
    "owner()": "8da5cb5b",
    "renounceOwnership()": "715018a6",
    "seize(address,uint256,address)": "c04fb7c3",
    "setController(address)": "92eefe9b",
    "token()": "fc0c546a",
    "transferOwnership(address)": "f2fde38b",
    "withdraw(uint256,address)": "00f714ce"
  },
  "id": 36
}