{
  "abi": [
    {
      "type": "constructor",
      "inputs": [
        {
          "name": "asset_",
          "type": "address",
          "internalType": "contract IERC20"
        }
      ],
      "stateMutability": "nonpayable"
    },
    {
      "type": "function",
      "name": "SECONDS_PER_YEAR",
      "inputs": [],
      "outputs": [
        {
          "name": "",
          "type": "uint256",
          "internalType": "uint256"
        }
      ],
      "stateMutability": "view"
    },
    {
      "type": "function",
      "name": "allowance",
      "inputs": [
        {
          "name": "owner",
          "type": "address",
          "internalType": "address"
        },
        {
          "name": "spender",
          "type": "address",
          "internalType": "address"
        }
      ],
      "outputs": [
        {
          "name": "",
          "type": "uint256",
          "internalType": "uint256"
        }
      ],
      "stateMutability": "view"
    },
    {
      "type": "function",
      "name": "approve",
      "inputs": [
        {
          "name": "spender",
          "type": "address",
          "internalType": "address"
        },
        {
          "name": "value",
          "type": "uint256",
          "internalType": "uint256"
        }
      ],
      "outputs": [
        {
          "name": "",
          "type": "bool",
          "internalType": "bool"
        }
      ],
      "stateMutability": "nonpayable"
    },
    {
      "type": "function",
      "name": "asset",
      "inputs": [],
      "outputs": [
        {
          "name": "",
          "type": "address",
          "internalType": "address"
        }
      ],
      "stateMutability": "view"
    },
    {
      "type": "function",
      "name": "assetsOf",
      "inputs": [
        {
          "name": "user",
          "type": "address",
          "internalType": "address"
        }
      ],
      "outputs": [
        {
          "name": "",
          "type": "uint256",
          "internalType": "uint256"
        }
      ],
      "stateMutability": "view"
    },
    {
      "type": "function",
      "name": "balanceOf",
      "inputs": [
        {
          "name": "account",
          "type": "address",
          "internalType": "address"
        }
      ],
      "outputs": [
        {
          "name": "",
          "type": "uint256",
          "internalType": "uint256"
        }
      ],
      "stateMutability": "view"
    },
    {
      "type": "function",
      "name": "baseRatePerSecond",
      "inputs": [],
      "outputs": [
        {
          "name": "",
          "type": "uint256",
          "internalType": "uint256"
        }
      ],
      "stateMutability": "view"
    },
    {
      "type": "function",
      "name": "borrow",
      "inputs": [
        {
          "name": "assets",
          "type": "uint256",
          "internalType": "uint256"
        }
      ],
      "outputs": [],
      "stateMutability": "nonpayable"
    },
    {
      "type": "function",
      "name": "borrowCap",
      "inputs": [],
      "outputs": [
        {
          "name": "",
          "type": "uint256",
          "internalType": "uint256"
        }
      ],
      "stateMutability": "view"
    },
    {
      "type": "function",
      "name": "borrowIndex",
      "inputs": [],
      "outputs": [
        {
          "name": "",
          "type": "uint256",
          "internalType": "uint256"
        }
      ],
      "stateMutability": "view"
    },
    {
      "type": "function",
      "name": "collateral",
      "inputs": [],
      "outputs": [
        {
          "name": "",
          "type": "address",
          "internalType": "contract ICollateralVault"
        }
      ],
      "stateMutability": "view"
    },
    {
      "type": "function",
      "name": "collateralAmount",
      "inputs": [
        {
          "name": "user",
          "type": "address",
          "internalType": "address"
        }
      ],
      "outputs": [
        {
          "name": "",
          "type": "uint256",
          "internalType": "uint256"
        }
      ],
      "stateMutability": "view"
    },
    {
      "type": "function",
      "name": "collateralValueE18",
      "inputs": [
        {
          "name": "user",
          "type": "address",
          "internalType": "address"
        }
      ],
      "outputs": [
        {
          "name": "",
          "type": "uint256",
          "internalType": "uint256"
        }
      ],
      "stateMutability": "view"
    },
    {
      "type": "function",
      "name": "convertToAssets",
      "inputs": [
        {
          "name": "shares",
          "type": "uint256",
          "internalType": "uint256"
        }
      ],
      "outputs": [
        {
          "name": "",
          "type": "uint256",
          "internalType": "uint256"
        }
      ],
      "stateMutability": "view"
    },
    {
      "type": "function",
      "name": "convertToShares",
      "inputs": [
        {
          "name": "assets",
          "type": "uint256",
          "internalType": "uint256"
        }
      ],
      "outputs": [
        {
          "name": "",
          "type": "uint256",
          "internalType": "uint256"
        }
      ],
      "stateMutability": "view"
    },
    {
      "type": "function",
      "name": "debtOf",
      "inputs": [
        {
          "name": "user",
          "type": "address",
          "internalType": "address"
        }
      ],
      "outputs": [
        {
          "name": "",
          "type": "uint256",
          "internalType": "uint256"
        }
      ],
      "stateMutability": "view"
    },
    {
      "type": "function",
      "name": "debtValueE18",
      "inputs": [
        {
          "name": "user",
          "type": "address",
          "internalType": "address"
        }
      ],
      "outputs": [
        {
          "name": "",
          "type": "uint256",
          "internalType": "uint256"
        }
      ],
      "stateMutability": "view"
    },
    {
      "type": "function",
      "name": "decimals",
      "inputs": [],
      "outputs": [
        {
          "name": "",
          "type": "uint8",
          "internalType": "uint8"
        }
      ],
      "stateMutability": "view"
    },
    {
      "type": "function",
      "name": "deposit",
      "inputs": [
        {
          "name": "assets",
          "type": "uint256",
          "internalType": "uint256"
        },
        {
          "name": "receiver",
          "type": "address",
          "internalType": "address"
        }
      ],
      "outputs": [
        {
          "name": "",
          "type": "uint256",
          "internalType": "uint256"
        }
      ],
      "stateMutability": "nonpayable"
    },
    {
      "type": "function",
      "name": "isHealthy",
      "inputs": [
        {
          "name": "user",
          "type": "address",
          "internalType": "address"
        }
      ],
      "outputs": [
        {
          "name": "",
          "type": "bool",
          "internalType": "bool"
        }
      ],
      "stateMutability": "view"
    },
    {
      "type": "function",
      "name": "lastAccrual",
      "inputs": [],
      "outputs": [
        {
          "name": "",
          "type": "uint64",
          "internalType": "uint64"
        }
      ],
      "stateMutability": "view"
    },
    {
      "type": "function",
      "name": "liqBonusBps",
      "inputs": [],
      "outputs": [
        {
          "name": "",
          "type": "uint256",
          "internalType": "uint256"
        }
      ],
      "stateMutability": "view"
    },
    {
      "type": "function",
      "name": "liqThresholdBps",
      "inputs": [],
      "outputs": [
        {
          "name": "",
          "type": "uint256",
          "internalType": "uint256"
        }
      ],
      "stateMutability": "view"
    },
    {
      "type": "function",
      "name": "liquidate",
      "inputs": [
        {
          "name": "borrower",
          "type": "address",
          "internalType": "address"
        },
        {
          "name": "repayAssets",
          "type": "uint256",
          "internalType": "uint256"
        },
        {
          "name": "seizeTo",
          "type": "address",
          "internalType": "address"
        }
      ],
      "outputs": [],
      "stateMutability": "nonpayable"
    },
    {
      "type": "function",
      "name": "ltvBps",
      "inputs": [],
      "outputs": [
        {
          "name": "",
          "type": "uint256",
          "internalType": "uint256"
        }
      ],
      "stateMutability": "view"
    },
    {
      "type": "function",
      "name": "maxDeposit",
      "inputs": [
        {
          "name": "",
          "type": "address",
          "internalType": "address"
        }
      ],
      "outputs": [
        {
          "name": "",
          "type": "uint256",
          "internalType": "uint256"
        }
      ],
      "stateMutability": "view"
    },
    {
      "type": "function",
      "name": "maxMint",
      "inputs": [
        {
          "name": "",
          "type": "address",
          "internalType": "address"
        }
      ],
      "outputs": [
        {
          "name": "",
          "type": "uint256",
          "internalType": "uint256"
        }
      ],
      "stateMutability": "view"
    },
    {
      "type": "function",
      "name": "maxRedeem",
      "inputs": [
        {
          "name": "owner_",
          "type": "address",
          "internalType": "address"
        }
      ],
      "outputs": [
        {
          "name": "",
          "type": "uint256",
          "internalType": "uint256"
        }
      ],
      "stateMutability": "view"
    },
    {
      "type": "function",
      "name": "maxWithdraw",
      "inputs": [
        {
          "name": "owner_",
          "type": "address",
          "internalType": "address"
        }
      ],
      "outputs": [
        {
          "name": "",
          "type": "uint256",
          "internalType": "uint256"
        }
      ],
      "stateMutability": "view"
    },
    {
      "type": "function",
      "name": "minCash",
      "inputs": [],
      "outputs": [
        {
          "name": "",
          "type": "uint256",
          "internalType": "uint256"
        }
      ],
      "stateMutability": "view"
    },
    {
      "type": "function",
      "name": "mint",
      "inputs": [
        {
          "name": "shares",
          "type": "uint256",
          "internalType": "uint256"
        },
        {
          "name": "receiver",
          "type": "address",
          "internalType": "address"
        }
      ],
      "outputs": [
        {
          "name": "",
          "type": "uint256",
          "internalType": "uint256"
        }
      ],
      "stateMutability": "nonpayable"
    },
    {
      "type": "function",
      "name": "name",
      "inputs": [],
      "outputs": [
        {
          "name": "",
          "type": "string",
          "internalType": "string"
        }
      ],
      "stateMutability": "view"
    },
    {
      "type": "function",
      "name": "optimalUtilization",
      "inputs": [],
      "outputs": [
        {
          "name": "",
          "type": "uint256",
          "internalType": "uint256"
        }
      ],
      "stateMutability": "view"
    },
    {
      "type": "function",
      "name": "oracle",
      "inputs": [],
      "outputs": [
        {
          "name": "",
          "type": "address",
          "internalType": "contract IPriceOracle"
        }
      ],
      "stateMutability": "view"
    },
    {
      "type": "function",
      "name": "owner",
      "inputs": [],
      "outputs": [
        {
          "name": "",
          "type": "address",
          "internalType": "address"
        }
      ],
      "stateMutability": "view"
    },
    {
      "type": "function",
      "name": "previewAccruedInterest",
      "inputs": [],
      "outputs": [
        {
          "name": "",
          "type": "uint256",
          "internalType": "uint256"
        }
      ],
      "stateMutability": "view"
    },
    {
      "type": "function",
      "name": "previewAccruedInterestOf",
      "inputs": [
        {
          "name": "user",
          "type": "address",
          "internalType": "address"
        }
      ],
      "outputs": [
        {
          "name": "",
          "type": "uint256",
          "internalType": "uint256"
        }
      ],
      "stateMutability": "view"
    },
    {
      "type": "function",
      "name": "previewDeposit",
      "inputs": [
        {
          "name": "assets",
          "type": "uint256",
          "internalType": "uint256"
        }
      ],
      "outputs": [
        {
          "name": "",
          "type": "uint256",
          "internalType": "uint256"
        }
      ],
      "stateMutability": "view"
    },
    {
      "type": "function",
      "name": "previewLenderAccruedInterestOf",
      "inputs": [
        {
          "name": "user",
          "type": "address",
          "internalType": "address"
        }
      ],
      "outputs": [
        {
          "name": "",
          "type": "uint256",
          "internalType": "uint256"
        }
      ],
      "stateMutability": "view"
    },
    {
      "type": "function",
      "name": "previewMint",
      "inputs": [
        {
          "name": "shares",
          "type": "uint256",
          "internalType": "uint256"
        }
      ],
      "outputs": [
        {
          "name": "",
          "type": "uint256",
          "internalType": "uint256"
        }
      ],
      "stateMutability": "view"
    },
    {
      "type": "function",
      "name": "previewRedeem",
      "inputs": [
        {
          "name": "shares",
          "type": "uint256",
          "internalType": "uint256"
        }
      ],
      "outputs": [
        {
          "name": "",
          "type": "uint256",
          "internalType": "uint256"
        }
      ],
      "stateMutability": "view"
    },
    {
      "type": "function",
      "name": "previewWithdraw",
      "inputs": [
        {
          "name": "assets",
          "type": "uint256",
          "internalType": "uint256"
        }
      ],
      "outputs": [
        {
          "name": "",
          "type": "uint256",
          "internalType": "uint256"
        }
      ],
      "stateMutability": "view"
    },
    {
      "type": "function",
      "name": "principalScaled",
      "inputs": [
        {
          "name": "",
          "type": "address",
          "internalType": "address"
        }
      ],
      "outputs": [
        {
          "name": "",
          "type": "uint256",
          "internalType": "uint256"
        }
      ],
      "stateMutability": "view"
    },
    {
      "type": "function",
      "name": "redeem",
      "inputs": [
        {
          "name": "shares",
          "type": "uint256",
          "internalType": "uint256"
        },
        {
          "name": "receiver",
          "type": "address",
          "internalType": "address"
        },
        {
          "name": "owner",
          "type": "address",
          "internalType": "address"
        }
      ],
      "outputs": [
        {
          "name": "",
          "type": "uint256",
          "internalType": "uint256"
        }
      ],
      "stateMutability": "nonpayable"
    },
    {
      "type": "function",
      "name": "renounceOwnership",
      "inputs": [],
      "outputs": [],
      "stateMutability": "nonpayable"
    },
    {
      "type": "function",
      "name": "repay",
      "inputs": [
        {
          "name": "assets",
          "type": "uint256",
          "internalType": "uint256"
        },
        {
          "name": "onBehalfOf",
          "type": "address",
          "internalType": "address"
        }
      ],
      "outputs": [],
      "stateMutability": "nonpayable"
    },
    {
      "type": "function",
      "name": "setIntegrations",
      "inputs": [
        {
          "name": "collateral_",
          "type": "address",
          "internalType": "address"
        },
        {
          "name": "oracle_",
          "type": "address",
          "internalType": "address"
        }
      ],
      "outputs": [],
      "stateMutability": "nonpayable"
    },
    {
      "type": "function",
      "name": "setLiquidityParams",
      "inputs": [
        {
          "name": "_borrowCap",
          "type": "uint256",
          "internalType": "uint256"
        },
        {
          "name": "_minCash",
          "type": "uint256",
          "internalType": "uint256"
        }
      ],
      "outputs": [],
      "stateMutability": "nonpayable"
    },
    {
      "type": "function",
      "name": "setRateParams",
      "inputs": [
        {
          "name": "basePerSec",
          "type": "uint256",
          "internalType": "uint256"
        },
        {
          "name": "slope1PerSec",
          "type": "uint256",
          "internalType": "uint256"
        },
        {
          "name": "slope2PerSec",
          "type": "uint256",
          "internalType": "uint256"
        },
        {
          "name": "optimalU",
          "type": "uint256",
          "internalType": "uint256"
        }
      ],
      "outputs": [],
      "stateMutability": "nonpayable"
    },
    {
      "type": "function",
      "name": "setRiskParams",
      "inputs": [
        {
          "name": "_ltvBps",
          "type": "uint256",
          "internalType": "uint256"
        },
        {
          "name": "_liqThresholdBps",
          "type": "uint256",
          "internalType": "uint256"
        },
        {
          "name": "_liqBonusBps",
          "type": "uint256",
          "internalType": "uint256"
        }
      ],
      "outputs": [],
      "stateMutability": "nonpayable"
    },
    {
      "type": "function",
      "name": "slope1PerSecond",
      "inputs": [],
      "outputs": [
        {
          "name": "",
          "type": "uint256",
          "internalType": "uint256"
        }
      ],
      "stateMutability": "view"
    },
    {
      "type": "function",
      "name": "slope2PerSecond",
      "inputs": [],
      "outputs": [
        {
          "name": "",
          "type": "uint256",
          "internalType": "uint256"
        }
      ],
      "stateMutability": "view"
    },
    {
      "type": "function",
      "name": "symbol",
      "inputs": [],
      "outputs": [
        {
          "name": "",
          "type": "string",
          "internalType": "string"
        }
      ],
      "stateMutability": "view"
    },
    {
      "type": "function",
      "name": "totalAssets",
      "inputs": [],
      "outputs": [
        {
          "name": "",
          "type": "uint256",
          "internalType": "uint256"
        }
      ],
      "stateMutability": "view"
    },
    {
      "type": "function",
      "name": "totalBorrows",
      "inputs": [],
      "outputs": [
        {
          "name": "",
          "type": "uint256",
          "internalType": "uint256"
        }
      ],
      "stateMutability": "view"
    },
    {
      "type": "function",
      "name": "totalSupply",
      "inputs": [],
      "outputs": [
        {
          "name": "",
          "type": "uint256",
          "internalType": "uint256"
        }
      ],
      "stateMutability": "view"
    },
    {
      "type": "function",
      "name": "transfer",
      "inputs": [
        {
          "name": "to",
          "type": "address",
          "internalType": "address"
        },
        {
          "name": "value",
          "type": "uint256",
          "internalType": "uint256"
        }
      ],
      "outputs": [
        {
          "name": "",
          "type": "bool",
          "internalType": "bool"
        }
      ],
      "stateMutability": "nonpayable"
    },
    {
      "type": "function",
      "name": "transferFrom",
      "inputs": [
        {
          "name": "from",
          "type": "address",
          "internalType": "address"
        },
        {
          "name": "to",
          "type": "address",
          "internalType": "address"
        },
        {
          "name": "value",
          "type": "uint256",
          "internalType": "uint256"
        }
      ],
      "outputs": [
        {
          "name": "",
          "type": "bool",
          "internalType": "bool"
        }
      ],
      "stateMutability": "nonpayable"
    },
    {
      "type": "function",
      "name": "transferOwnership",
      "inputs": [
        {
          "name": "newOwner",
          "type": "address",
          "internalType": "address"
        }
      ],
      "outputs": [],
      "stateMutability": "nonpayable"
    },
    {
      "type": "function",
      "name": "withdraw",
      "inputs": [
        {
          "name": "assets",
          "type": "uint256",
          "internalType": "uint256"
        },
        {
          "name": "receiver",
          "type": "address",
          "internalType": "address"
        },
        {
          "name": "owner",
          "type": "address",
          "internalType": "address"
        }
      ],
      "outputs": [
        {
          "name": "",
          "type": "uint256",
          "internalType": "uint256"
        }
      ],
      "stateMutability": "nonpayable"
    },
    {
      "type": "event",
      "name": "Approval",
      "inputs": [
        {
          "name": "owner",
          "type": "address",
          "indexed": true,
          "internalType": "address"
        },
        {
          "name": "spender",
          "type": "address",
          "indexed": true,
          "internalType": "address"
        },
        {
          "name": "value",
          "type": "uint256",
          "indexed": false,
          "internalType": "uint256"
        }
      ],
      "anonymous": false
    },
    {
      "type": "event",
      "name": "Deposit",
      "inputs": [
        {
          "name": "sender",
          "type": "address",
          "indexed": true,
          "internalType": "address"
        },
        {
          "name": "owner",
          "type": "address",
          "indexed": true,
          "internalType": "address"
        },
        {
          "name": "assets",
          "type": "uint256",
          "indexed": false,
          "internalType": "uint256"
        },
        {
          "name": "shares",
          "type": "uint256",
          "indexed": false,
          "internalType": "uint256"
        }
      ],
      "anonymous": false
    },
    {
      "type": "event",
      "name": "IntegrationUpdated",
      "inputs": [
        {
          "name": "collateral",
          "type": "address",
          "indexed": false,
          "internalType": "address"
        },
        {
          "name": "oracle",
          "type": "address",
          "indexed": false,
          "internalType": "address"
        }
      ],
      "anonymous": false
    },
    {
      "type": "event",
      "name": "LiquidityParamsUpdated",
      "inputs": [
        {
          "name": "borrowCap",
          "type": "uint256",
          "indexed": false,
          "internalType": "uint256"
        },
        {
          "name": "minCash",
          "type": "uint256",
          "indexed": false,
          "internalType": "uint256"
        }
      ],
      "anonymous": false
    },
    {
      "type": "event",
      "name": "OwnershipTransferred",
      "inputs": [
        {
          "name": "previousOwner",
          "type": "address",
          "indexed": true,
          "internalType": "address"
        },
        {
          "name": "newOwner",
          "type": "address",
          "indexed": true,
          "internalType": "address"
        }
      ],
      "anonymous": false
    },
    {
      "type": "event",
      "name": "RateParamsUpdated",
      "inputs": [
        {
          "name": "baseRatePerSecond",
          "type": "uint256",
          "indexed": false,
          "internalType": "uint256"
        },
        {
          "name": "slope1PerSecond",
          "type": "uint256",
          "indexed": false,
          "internalType": "uint256"
        },
        {
          "name": "slope2PerSecond",
          "type": "uint256",
          "indexed": false,
          "internalType": "uint256"
        },
        {
          "name": "optimalUtilization",
          "type": "uint256",
          "indexed": false,
          "internalType": "uint256"
        }
      ],
      "anonymous": false
    },
    {
      "type": "event",
      "name": "RiskParamsUpdated",
      "inputs": [
        {
          "name": "ltvBps",
          "type": "uint256",
          "indexed": false,
          "internalType": "uint256"
        },
        {
          "name": "liqThresholdBps",
          "type": "uint256",
          "indexed": false,
          "internalType": "uint256"
        },
        {
          "name": "liqBonusBps",
          "type": "uint256",
          "indexed": false,
          "internalType": "uint256"
        }
      ],
      "anonymous": false
    },
    {
      "type": "event",
      "name": "Transfer",
      "inputs": [
        {
          "name": "from",
          "type": "address",
          "indexed": true,
          "internalType": "address"
        },
        {
          "name": "to",
          "type": "address",
          "indexed": true,
          "internalType": "address"
        },
        {
          "name": "value",
          "type": "uint256",
          "indexed": false,
          "internalType": "uint256"
        }
      ],
      "anonymous": false
    },
    {
      "type": "event",
      "name": "Withdraw",
      "inputs": [
        {
          "name": "sender",
          "type": "address",
          "indexed": true,
          "internalType": "address"
        },
        {
          "name": "receiver",
          "type": "address",
          "indexed": true,
          "internalType": "address"
        },
        {
          "name": "owner",
          "type": "address",
          "indexed": true,
          "internalType": "address"
        },
        {
          "name": "assets",
          "type": "uint256",
          "indexed": false,
          "internalType": "uint256"
        },
        {
          "name": "shares",
          "type": "uint256",
          "indexed": false,
          "internalType": "uint256"
        }
      ],
      "anonymous": false
    },
    {
      "type": "error",
      "name": "ERC20InsufficientAllowance",
      "inputs": [
        {
          "name": "spender",
          "type": "address",
          "internalType": "address"
        },
        {
          "name": "allowance",
          "type": "uint256",
          "internalType": "uint256"
        },
        {
          "name": "needed",
          "type": "uint256",
          "internalType": "uint256"
        }
      ]
    },
    {
      "type": "error",
      "name": "ERC20InsufficientBalance",
      "inputs": [
        {
          "name": "sender",
          "type": "address",
          "internalType": "address"
        },
        {
          "name": "balance",
          "type": "uint256",
          "internalType": "uint256"
        },
        {
          "name": "needed",
          "type": "uint256",
          "internalType": "uint256"
        }
      ]
    },
    {
      "type": "error",
      "name": "ERC20InvalidApprover",
      "inputs": [
        {
          "name": "approver",
          "type": "address",
          "internalType": "address"
        }
      ]
    },
    {
      "type": "error",
      "name": "ERC20InvalidReceiver",
      "inputs": [
        {
          "name": "receiver",
          "type": "address",
          "internalType": "address"
        }
      ]
    },
    {
      "type": "error",
      "name": "ERC20InvalidSender",
      "inputs": [
        {
          "name": "sender",
          "type": "address",
          "internalType": "address"
        }
      ]
    },
    {
      "type": "error",
      "name": "ERC20InvalidSpender",
      "inputs": [
        {
          "name": "spender",
          "type": "address",
          "internalType": "address"
        }
      ]
    },
    {
      "type": "error",
      "name": "ERC4626ExceededMaxDeposit",
      "inputs": [
        {
          "name": "receiver",
          "type": "address",
          "internalType": "address"
        },
        {
          "name": "assets",
          "type": "uint256",
          "internalType": "uint256"
        },
        {
          "name": "max",
          "type": "uint256",
          "internalType": "uint256"
        }
      ]
    },
    {
      "type": "error",
      "name": "ERC4626ExceededMaxMint",
      "inputs": [
        {
          "name": "receiver",
          "type": "address",
          "internalType": "address"
        },
        {
          "name": "shares",
          "type": "uint256",
          "internalType": "uint256"
        },
        {
          "name": "max",
          "type": "uint256",
          "internalType": "uint256"
        }
      ]
    },
    {
      "type": "error",
      "name": "ERC4626ExceededMaxRedeem",
      "inputs": [
        {
          "name": "owner",
          "type": "address",
          "internalType": "address"
        },
        {
          "name": "shares",
          "type": "uint256",
          "internalType": "uint256"
        },
        {
          "name": "max",
          "type": "uint256",
          "internalType": "uint256"
        }
      ]
    },
    {
      "type": "error",
      "name": "ERC4626ExceededMaxWithdraw",
      "inputs": [
        {
          "name": "owner",
          "type": "address",
          "internalType": "address"
        },
        {
          "name": "assets",
          "type": "uint256",
          "internalType": "uint256"
        },
        {
          "name": "max",
          "type": "uint256",
          "internalType": "uint256"
        }
      ]
    },
    {
      "type": "error",
      "name": "OwnableInvalidOwner",
      "inputs": [
        {
          "name": "owner",
          "type": "address",
          "internalType": "address"
        }
      ]
    },
    {
      "type": "error",
      "name": "OwnableUnauthorizedAccount",
      "inputs": [
        {
          "name": "account",
          "type": "address",
          "internalType": "address"
        }
      ]
    },
    {
      "type": "error",
      "name": "ReentrancyGuardReentrantCall",
      "inputs": []
    },
    {
      "type": "error",
      "name": "SafeERC20FailedOperation",
      "inputs": [
        {
          "name": "token",
          "type": "address",
          "internalType": "address"
        }
      ]
    }
  ],
  "bytecode": {
    "object": "0x60c0604052611f406011556121346012556101f4601355348015610021575f5ffd5b50604051614f96380380614f96833981810160405281019061004391906104a2565b33816040518060400160405280601081526020017f4b58204c656e64696e67205661756c74000000000000000000000000000000008152506040518060400160405280600481526020017f6b784c560000000000000000000000000000000000000000000000000000000081525081600390816100c0919061070a565b5080600490816100d0919061070a565b5050505f5f6100e48361026760201b60201c565b91509150816100f45760126100f6565b805b60ff1660a08160ff16815250508273ffffffffffffffffffffffffffffffffffffffff1660808173ffffffffffffffffffffffffffffffffffffffff16815250505050505f73ffffffffffffffffffffffffffffffffffffffff168173ffffffffffffffffffffffffffffffffffffffff16036101aa575f6040517f1e4fbdf70000000000000000000000000000000000000000000000000000000081526004016101a191906107e8565b60405180910390fd5b6101b98161037060201b60201c565b506001600681905550670de0b6b3a76400006008819055504260095f6101000a81548167ffffffffffffffff021916908367ffffffffffffffff1602179055506301e1338066470de4df820000610210919061082e565b600a819055506301e1338067027f7d0bdb92000061022e919061082e565b600b819055506301e133806714d1120d7b16000061024c919061082e565b600c81905550670b1a2bc2ec500000600d819055505061091b565b5f5f5f5f8473ffffffffffffffffffffffffffffffffffffffff1660405160240160405160208183030381529060405263313ce56760e01b6020820180517bffffffffffffffffffffffffffffffffffffffffffffffffffffffff83818316178352505050506040516102da91906108b0565b5f60405180830381855afa9150503d805f8114610312576040519150601f19603f3d011682016040523d82523d5f602084013e610317565b606091505b509150915081801561032b57506020815110155b15610362575f8180602001905181019061034591906108f0565b905060ff80168111610360576001819450945050505061036b565b505b5f5f9350935050505b915091565b5f60055f9054906101000a900473ffffffffffffffffffffffffffffffffffffffff1690508160055f6101000a81548173ffffffffffffffffffffffffffffffffffffffff021916908373ffffffffffffffffffffffffffffffffffffffff1602179055508173ffffffffffffffffffffffffffffffffffffffff168173ffffffffffffffffffffffffffffffffffffffff167f8be0079c531659141344cd1fd0a4f28419497f9722a3daafe3b4186f6b6457e060405160405180910390a35050565b5f5ffd5b5f73ffffffffffffffffffffffffffffffffffffffff82169050919050565b5f61046082610437565b9050919050565b5f61047182610456565b9050919050565b61048181610467565b811461048b575f5ffd5b50565b5f8151905061049c81610478565b92915050565b5f602082840312156104b7576104b6610433565b5b5f6104c48482850161048e565b91505092915050565b5f81519050919050565b7f4e487b71000000000000000000000000000000000000000000000000000000005f52604160045260245ffd5b7f4e487b71000000000000000000000000000000000000000000000000000000005f52602260045260245ffd5b5f600282049050600182168061054857607f821691505b60208210810361055b5761055a610504565b5b50919050565b5f819050815f5260205f209050919050565b5f6020601f8301049050919050565b5f82821b905092915050565b5f600883026105bd7fffffffffffffffffffffffffffffffffffffffffffffffffffffffffffffffff82610582565b6105c78683610582565b95508019841693508086168417925050509392505050565b5f819050919050565b5f819050919050565b5f61060b610606610601846105df565b6105e8565b6105df565b9050919050565b5f819050919050565b610624836105f1565b61063861063082610612565b84845461058e565b825550505050565b5f5f905090565b61064f610640565b61065a81848461061b565b505050565b5b8181101561067d576106725f82610647565b600181019050610660565b5050565b601f8211156106c25761069381610561565b61069c84610573565b810160208510156106ab578190505b6106bf6106b785610573565b83018261065f565b50505b505050565b5f82821c905092915050565b5f6106e25f19846008026106c7565b1980831691505092915050565b5f6106fa83836106d3565b9150826002028217905092915050565b610713826104cd565b67ffffffffffffffff81111561072c5761072b6104d7565b5b6107368254610531565b610741828285610681565b5f60209050601f831160018114610772575f8415610760578287015190505b61076a85826106ef565b8655506107d1565b601f19841661078086610561565b5f5b828110156107a757848901518255600182019150602085019450602081019050610782565b868310156107c457848901516107c0601f8916826106d3565b8355505b6001600288020188555050505b505050505050565b6107e281610456565b82525050565b5f6020820190506107fb5f8301846107d9565b92915050565b7f4e487b71000000000000000000000000000000000000000000000000000000005f52601260045260245ffd5b5f610838826105df565b9150610843836105df565b92508261085357610852610801565b5b828204905092915050565b5f81519050919050565b5f81905092915050565b8281835e5f83830152505050565b5f61088a8261085e565b6108948185610868565b93506108a4818560208601610872565b80840191505092915050565b5f6108bb8284610880565b915081905092915050565b6108cf816105df565b81146108d9575f5ffd5b50565b5f815190506108ea816108c6565b92915050565b5f6020828403121561090557610904610433565b5b5f610912848285016108dc565b91505092915050565b60805160a05161465a61093c5f395f610f2101525f610f52015261465a5ff3fe608060405234801561000f575f5ffd5b50600436106103a2575f3560e01c806395d89b41116101e7578063c6e6f5921161010d578063d8dfeb45116100ab578063e6a69ab81161007a578063e6a69ab814610be8578063ef8b30f714610c06578063f00d9ab114610c36578063f2fde38b14610c66576103a2565b8063d8dfeb4514610b4c578063d905777e14610b6a578063d90e026414610b9a578063dd62ed3e14610bb8576103a2565b8063ced65b01116100e7578063ced65b0114610ab2578063d283e75f14610ace578063d4d9bc6814610afe578063d726ae9814610b2e576103a2565b8063c6e6f59214610a34578063c78e291914610a64578063ce96cb7714610a82576103a2565b8063b460af9411610185578063c09f28df11610154578063c09f28df14610988578063c5ebeaec146109b8578063c63d75b6146109d4578063c677041514610a04576103a2565b8063b460af94146108ee578063b857b0631461091e578063ba0876521461093a578063bdb30aa01461096a576103a2565b8063acb70815116101c1578063acb7081514610856578063b02867c314610872578063b2cd0fdc1461088e578063b3d7f6b9146108be576103a2565b806395d89b41146107ea578063a9059cbb14610808578063aa5af0fd14610838576103a2565b806347bd3718116102cc57806370a082311161026a5780637dc0d1d0116102395780637dc0d1d0146107605780638da5cb5b1461077e5780638eb80efe1461079c57806394bf804d146107ba576103a2565b806370a08231146106d8578063715018a6146107085780637748f5c6146107125780637b3baab414610742576103a2565b80634cdad506116102a65780634cdad5061461063c5780636290cd1c1461066c5780636e553f651461068a5780636ec6df0e146106ba576103a2565b806347bd3718146105d25780634914c008146105f05780634c642be61461060c576103a2565b806318160ddd11610344578063313ce56711610313578063313ce5671461054857806338d52e0f14610566578063402d267d1461058457806344d9dca6146105b4576103a2565b806318160ddd146104ac57806323b872dd146104ca578063276b7377146104fa5780632c62fa1014610518576103a2565b8063095ea7b311610380578063095ea7b3146104125780630a28a477146104425780630c0e717b1461047257806310af06a214610490576103a2565b806301e1d114146103a657806306fdde03146103c457806307a2d13a146103e2575b5f5ffd5b6103ae610c82565b6040516103bb9190613804565b60405180910390f35b6103cc610d1e565b6040516103d9919061388d565b60405180910390f35b6103fc60048036038101906103f791906138db565b610dae565b6040516104099190613804565b60405180910390f35b61042c60048036038101906104279190613960565b610dc0565b60405161043991906139b8565b60405180910390f35b61045c600480360381019061045791906138db565b610de2565b6040516104699190613804565b60405180910390f35b61047a610df5565b6040516104879190613804565b60405180910390f35b6104aa60048036038101906104a591906139d1565b610dfb565b005b6104b4610ec0565b6040516104c19190613804565b60405180910390f35b6104e460048036038101906104df9190613a0f565b610ec9565b6040516104f191906139b8565b60405180910390f35b610502610ef7565b60405161050f9190613804565b60405180910390f35b610532600480360381019061052d9190613a5f565b610efd565b60405161053f9190613804565b60405180910390f35b610550610f16565b60405161055d9190613aa5565b60405180910390f35b61056e610f4f565b60405161057b9190613acd565b60405180910390f35b61059e60048036038101906105999190613a5f565b610f76565b6040516105ab9190613804565b60405180910390f35b6105bc610f9f565b6040516105c99190613804565b60405180910390f35b6105da610fa5565b6040516105e79190613804565b60405180910390f35b61060a60048036038101906106059190613ae6565b610fab565b005b61062660048036038101906106219190613a5f565b6113ad565b6040516106339190613804565b60405180910390f35b610656600480360381019061065191906138db565b6113c2565b6040516106639190613804565b60405180910390f35b6106746113d4565b6040516106819190613804565b60405180910390f35b6106a4600480360381019061069f9190613b36565b6113da565b6040516106b19190613804565b60405180910390f35b6106c261145a565b6040516106cf9190613804565b60405180910390f35b6106f260048036038101906106ed9190613a5f565b611460565b6040516106ff9190613804565b60405180910390f35b6107106114a5565b005b61072c60048036038101906107279190613a5f565b6114b8565b6040516107399190613804565b60405180910390f35b61074a611502565b6040516107579190613b96565b60405180910390f35b61076861151b565b6040516107759190613c0a565b60405180910390f35b610786611540565b6040516107939190613acd565b60405180910390f35b6107a4611568565b6040516107b19190613804565b60405180910390f35b6107d460048036038101906107cf9190613b36565b61156e565b6040516107e19190613804565b60405180910390f35b6107f26115ee565b6040516107ff919061388d565b60405180910390f35b610822600480360381019061081d9190613960565b61167e565b60405161082f91906139b8565b60405180910390f35b6108406116a0565b60405161084d9190613804565b60405180910390f35b610870600480360381019061086b9190613b36565b6116a6565b005b61088c60048036038101906108879190613c23565b611841565b005b6108a860048036038101906108a39190613a5f565b6118f3565b6040516108b59190613804565b60405180910390f35b6108d860048036038101906108d391906138db565b611994565b6040516108e59190613804565b60405180910390f35b61090860048036038101906109039190613c87565b6119a7565b6040516109159190613804565b60405180910390f35b61093860048036038101906109339190613cd7565b611a29565b005b610954600480360381019061094f9190613c87565b611a7c565b6040516109619190613804565b60405180910390f35b610972611afe565b60405161097f9190613804565b60405180910390f35b6109a2600480360381019061099d9190613a5f565b611b04565b6040516109af9190613804565b60405180910390f35b6109d260048036038101906109cd91906138db565b611b5e565b005b6109ee60048036038101906109e99190613a5f565b611f38565b6040516109fb9190613804565b60405180910390f35b610a1e6004803603810190610a199190613a5f565b611f61565b604051610a2b9190613804565b60405180910390f35b610a4e6004803603810190610a4991906138db565b611fd7565b604051610a5b9190613804565b60405180910390f35b610a6c611fe9565b604051610a799190613804565b60405180910390f35b610a9c6004803603810190610a979190613a5f565b612019565b604051610aa99190613804565b60405180910390f35b610acc6004803603810190610ac79190613d15565b6120c8565b005b610ae86004803603810190610ae39190613a5f565b612176565b604051610af59190613804565b60405180910390f35b610b186004803603810190610b139190613a5f565b6121df565b604051610b2591906139b8565b60405180910390f35b610b3661221f565b604051610b439190613804565b60405180910390f35b610b54612225565b604051610b619190613d85565b60405180910390f35b610b846004803603810190610b7f9190613a5f565b61224a565b604051610b919190613804565b60405180910390f35b610ba26122fe565b604051610baf9190613804565b60405180910390f35b610bd26004803603810190610bcd91906139d1565b612304565b604051610bdf9190613804565b60405180910390f35b610bf0612386565b604051610bfd9190613804565b60405180910390f35b610c206004803603810190610c1b91906138db565b61238e565b604051610c2d9190613804565b60405180910390f35b610c506004803603810190610c4b9190613a5f565b6123a0565b604051610c5d9190613804565b60405180910390f35b610c806004803603810190610c7b9190613a5f565b6123ea565b005b5f5f610c8c610f4f565b73ffffffffffffffffffffffffffffffffffffffff166370a08231306040518263ffffffff1660e01b8152600401610cc49190613acd565b602060405180830381865afa158015610cdf573d5f5f3e3d5ffd5b505050506040513d601f19601f82011682018060405250810190610d039190613db2565b9050610d0d61246e565b81610d189190613e0a565b91505090565b606060038054610d2d90613e6a565b80601f0160208091040260200160405190810160405280929190818152602001828054610d5990613e6a565b8015610da45780601f10610d7b57610100808354040283529160200191610da4565b820191905f5260205f20905b815481529060010190602001808311610d8757829003601f168201915b5050505050905090565b5f610db9825f6125b0565b9050919050565b5f5f610dca612608565b9050610dd781858561260f565b600191505092915050565b5f610dee826001612621565b9050919050565b60135481565b610e03612679565b81600f5f6101000a81548173ffffffffffffffffffffffffffffffffffffffff021916908373ffffffffffffffffffffffffffffffffffffffff1602179055508060105f6101000a81548173ffffffffffffffffffffffffffffffffffffffff021916908373ffffffffffffffffffffffffffffffffffffffff1602179055507fb0bfb2912a9768cb682ae3465ef784fcb67b9b991c4a34181adff3b076d6ccc28282604051610eb4929190613e9a565b60405180910390a15050565b5f600254905090565b5f5f610ed3612608565b9050610ee0858285612700565b610eeb858585612793565b60019150509392505050565b60115481565b5f610f0f610f0a83611460565b610dae565b9050919050565b5f610f1f612883565b7f0000000000000000000000000000000000000000000000000000000000000000610f4a9190613ec1565b905090565b5f7f0000000000000000000000000000000000000000000000000000000000000000905090565b5f7fffffffffffffffffffffffffffffffffffffffffffffffffffffffffffffffff9050919050565b60145481565b60075481565b610fb361288a565b5f73ffffffffffffffffffffffffffffffffffffffff16600f5f9054906101000a900473ffffffffffffffffffffffffffffffffffffffff1673ffffffffffffffffffffffffffffffffffffffff161415801561105d57505f73ffffffffffffffffffffffffffffffffffffffff1660105f9054906101000a900473ffffffffffffffffffffffffffffffffffffffff1673ffffffffffffffffffffffffffffffffffffffff1614155b61109c576040517f08c379a000000000000000000000000000000000000000000000000000000000815260040161109390613f3f565b60405180910390fd5b5f82116110de576040517f08c379a00000000000000000000000000000000000000000000000000000000081526004016110d590613fa7565b60405180910390fd5b6110e661289c565b5f6110f0846123a0565b90505f6110fc856114b8565b905080612710601254846111109190613fc5565b61111a9190614033565b1061115a576040517f08c379a0000000000000000000000000000000000000000000000000000000008152600401611151906140ad565b60405180910390fd5b61118e333086611168610f4f565b73ffffffffffffffffffffffffffffffffffffffff16612a6a909392919063ffffffff16565b5f6111b361119a612abf565b670de0b6b3a764000087612b659092919063ffffffff16565b90505f6127106013546127106111c99190613e0a565b836111d49190613fc5565b6111de9190614033565b90505f611205670de0b6b3a76400006111f5612c44565b84612b659092919063ffffffff16565b90505f611264600854670de0b6b3a7640000600e5f8d73ffffffffffffffffffffffffffffffffffffffff1673ffffffffffffffffffffffffffffffffffffffff1681526020019081526020015f2054612b659092919063ffffffff16565b90505f8189106112745781611276565b885b90505f818361128591906140cb565b90505f81146112b2576112ad670de0b6b3a764000060085483612b659092919063ffffffff16565b6112b4565b5f5b600e5f8d73ffffffffffffffffffffffffffffffffffffffff1673ffffffffffffffffffffffffffffffffffffffff1681526020019081526020015f20819055508160075f82825461130691906140cb565b92505081905550600f5f9054906101000a900473ffffffffffffffffffffffffffffffffffffffff1673ffffffffffffffffffffffffffffffffffffffff1663c04fb7c38c868c6040518463ffffffff1660e01b815260040161136b939291906140fe565b5f604051808303815f87803b158015611382575f5ffd5b505af1158015611394573d5f5f3e3d5ffd5b5050505050505050505050506113a8612cea565b505050565b600e602052805f5260405f205f915090505481565b5f6113cd825f6125b0565b9050919050565b600d5481565b5f5f6113e583610f76565b905080841115611430578284826040517f79012fb200000000000000000000000000000000000000000000000000000000815260040161142793929190614133565b60405180910390fd5b5f61143a8561238e565b905061144f611447612608565b858784612cf4565b809250505092915050565b600c5481565b5f5f5f8373ffffffffffffffffffffffffffffffffffffffff1673ffffffffffffffffffffffffffffffffffffffff1681526020019081526020015f20549050919050565b6114ad612679565b6114b65f612d7e565b565b5f5f6114c383612176565b90505f81036114d5575f9150506114fd565b6114f96114e0612abf565b670de0b6b3a764000083612b659092919063ffffffff16565b9150505b919050565b60095f9054906101000a900467ffffffffffffffff1681565b60105f9054906101000a900473ffffffffffffffffffffffffffffffffffffffff1681565b5f60055f9054906101000a900473ffffffffffffffffffffffffffffffffffffffff16905090565b60125481565b5f5f61157983611f38565b9050808411156115c4578284826040517f284ff6670000000000000000000000000000000000000000000000000000000081526004016115bb93929190614133565b60405180910390fd5b5f6115ce85611994565b90506115e36115db612608565b858388612cf4565b809250505092915050565b6060600480546115fd90613e6a565b80601f016020809104026020016040519081016040528092919081815260200182805461162990613e6a565b80156116745780601f1061164b57610100808354040283529160200191611674565b820191905f5260205f20905b81548152906001019060200180831161165757829003601f168201915b5050505050905090565b5f5f611688612608565b9050611695818585612793565b600191505092915050565b60085481565b6116ae61288a565b5f82116116f0576040517f08c379a00000000000000000000000000000000000000000000000000000000081526004016116e790613fa7565b60405180910390fd5b6116f861289c565b61172c333084611706610f4f565b73ffffffffffffffffffffffffffffffffffffffff16612a6a909392919063ffffffff16565b5f611789600854670de0b6b3a7640000600e5f8673ffffffffffffffffffffffffffffffffffffffff1673ffffffffffffffffffffffffffffffffffffffff1681526020019081526020015f2054612b659092919063ffffffff16565b90505f818410611799578161179b565b835b90505f81836117aa91906140cb565b90505f81146117d7576117d2670de0b6b3a764000060085483612b659092919063ffffffff16565b6117d9565b5f5b600e5f8673ffffffffffffffffffffffffffffffffffffffff1673ffffffffffffffffffffffffffffffffffffffff1681526020019081526020015f20819055508160075f82825461182b91906140cb565b9250508190555050505061183d612cea565b5050565b611849612679565b670de0b6b3a7640000811115611894576040517f08c379a000000000000000000000000000000000000000000000000000000000815260040161188b906141b2565b60405180910390fd5b83600a8190555082600b8190555081600c8190555080600d819055507fbe10c49900638e45eef24e4281b06e63a7b59041eb279f497fb30236bdcd3a78848484846040516118e594939291906141d0565b60405180910390a150505050565b5f600f5f9054906101000a900473ffffffffffffffffffffffffffffffffffffffff1673ffffffffffffffffffffffffffffffffffffffff166370a08231836040518263ffffffff1660e01b815260040161194e9190613acd565b602060405180830381865afa158015611969573d5f5f3e3d5ffd5b505050506040513d601f19601f8201168201806040525081019061198d9190613db2565b9050919050565b5f6119a08260016125b0565b9050919050565b5f5f6119b283612019565b9050808511156119fd578285826040517ffe9cceec0000000000000000000000000000000000000000000000000000000081526004016119f493929190614133565b60405180910390fd5b5f611a0786610de2565b9050611a1d611a14612608565b86868985612e41565b80925050509392505050565b611a31612679565b81601481905550806015819055507f6fbc2db60ee4b67b65b0d370606ce8ba8ed1bf03371f6038a0603da4ba2343458282604051611a70929190614213565b60405180910390a15050565b5f5f611a878361224a565b905080851115611ad2578285826040517fb94abeec000000000000000000000000000000000000000000000000000000008152600401611ac993929190614133565b60405180910390fd5b5f611adc866113c2565b9050611af2611ae9612608565b8686848a612e41565b80925050509392505050565b60155481565b5f5f611b0e611fe9565b90505f8103611b20575f915050611b59565b5f611b2a84612176565b90505f8103611b3d575f92505050611b59565b611b548160075484612b659092919063ffffffff16565b925050505b919050565b611b6661288a565b5f73ffffffffffffffffffffffffffffffffffffffff16600f5f9054906101000a900473ffffffffffffffffffffffffffffffffffffffff1673ffffffffffffffffffffffffffffffffffffffff1614158015611c1057505f73ffffffffffffffffffffffffffffffffffffffff1660105f9054906101000a900473ffffffffffffffffffffffffffffffffffffffff1673ffffffffffffffffffffffffffffffffffffffff1614155b611c4f576040517f08c379a0000000000000000000000000000000000000000000000000000000008152600401611c4690613f3f565b60405180910390fd5b5f8111611c91576040517f08c379a0000000000000000000000000000000000000000000000000000000008152600401611c8890613fa7565b60405180910390fd5b611c9961289c565b5f611ca2610f4f565b73ffffffffffffffffffffffffffffffffffffffff166370a08231306040518263ffffffff1660e01b8152600401611cda9190613acd565b602060405180830381865afa158015611cf5573d5f5f3e3d5ffd5b505050506040513d601f19601f82011682018060405250810190611d199190613db2565b905060155482611d299190613e0a565b811015611d6b576040517f08c379a0000000000000000000000000000000000000000000000000000000008152600401611d6290614284565b60405180910390fd5b5f60145414611dc75760145482600754611d859190613e0a565b1115611dc6576040517f08c379a0000000000000000000000000000000000000000000000000000000008152600401611dbd906142ec565b60405180910390fd5b5b5f611dd1336123a0565b90505f611ddd336114b8565b90505f611e04611deb612abf565b670de0b6b3a764000087612b659092919063ffffffff16565b90508082611e129190613e0a565b61271060115485611e239190613fc5565b611e2d9190614033565b1015611e6e576040517f08c379a0000000000000000000000000000000000000000000000000000000008152600401611e6590614354565b60405180910390fd5b8460075f828254611e7f9190613e0a565b92505081905550611ea5670de0b6b3a764000060085487612b659092919063ffffffff16565b600e5f3373ffffffffffffffffffffffffffffffffffffffff1673ffffffffffffffffffffffffffffffffffffffff1681526020019081526020015f205f828254611ef09190613e0a565b92505081905550611f293386611f04610f4f565b73ffffffffffffffffffffffffffffffffffffffff16612f219092919063ffffffff16565b50505050611f35612cea565b50565b5f7fffffffffffffffffffffffffffffffffffffffffffffffffffffffffffffffff9050919050565b5f5f611f6b611fe9565b90505f8103611f7d575f915050611fd2565b5f611f8784611460565b90505f8103611f9a575f92505050611fd2565b5f611fa3610ec0565b90505f8103611fb7575f9350505050611fd2565b611fcc828285612b659092919063ffffffff16565b93505050505b919050565b5f611fe2825f612621565b9050919050565b5f5f611ff361246e565b90506007548111612004575f612013565b6007548161201291906140cb565b5b91505090565b5f5f612023610f4f565b73ffffffffffffffffffffffffffffffffffffffff166370a08231306040518263ffffffff1660e01b815260040161205b9190613acd565b602060405180830381865afa158015612076573d5f5f3e3d5ffd5b505050506040513d601f19601f8201168201806040525081019061209a9190613db2565b90505f6120ae6120a985611460565b610dae565b90508082106120bd57806120bf565b815b92505050919050565b6120d0612679565b8183111580156120e2575061251c8211155b612121576040517f08c379a0000000000000000000000000000000000000000000000000000000008152600401612118906143bc565b60405180910390fd5b8260118190555081601281905550806013819055507f06530df2d06374eed2221255d53550fa41ff0c0e1d49e93df27d5fff8a77bc7f838383604051612169939291906143da565b60405180910390a1505050565b5f5f6121d4600854670de0b6b3a7640000600e5f8773ffffffffffffffffffffffffffffffffffffffff1673ffffffffffffffffffffffffffffffffffffffff1681526020019081526020015f2054612b659092919063ffffffff16565b905080915050919050565b5f5f6121ea836123a0565b90505f6121f6846114b8565b9050806127106012548461220a9190613fc5565b6122149190614033565b101592505050919050565b600b5481565b600f5f9054906101000a900473ffffffffffffffffffffffffffffffffffffffff1681565b5f5f612254610f4f565b73ffffffffffffffffffffffffffffffffffffffff166370a08231306040518263ffffffff1660e01b815260040161228c9190613acd565b602060405180830381865afa1580156122a7573d5f5f3e3d5ffd5b505050506040513d601f19601f820116820180604052508101906122cb9190613db2565b90505f6122d782611fd7565b90505f6122e385611460565b90508082106122f257806122f4565b815b9350505050919050565b600a5481565b5f60015f8473ffffffffffffffffffffffffffffffffffffffff1673ffffffffffffffffffffffffffffffffffffffff1681526020019081526020015f205f8373ffffffffffffffffffffffffffffffffffffffff1673ffffffffffffffffffffffffffffffffffffffff1681526020019081526020015f2054905092915050565b6301e1338081565b5f612399825f612621565b9050919050565b5f5f6123ab836118f3565b90505f81036123bd575f9150506123e5565b6123e16123c8612c44565b670de0b6b3a764000083612b659092919063ffffffff16565b9150505b919050565b6123f2612679565b5f73ffffffffffffffffffffffffffffffffffffffff168173ffffffffffffffffffffffffffffffffffffffff1603612462575f6040517f1e4fbdf70000000000000000000000000000000000000000000000000000000081526004016124599190613acd565b60405180910390fd5b61246b81612d7e565b50565b5f60095f9054906101000a900467ffffffffffffffff1667ffffffffffffffff1642148061249d57505f600754145b156124ac5760075490506125ad565b5f6124b5610f4f565b73ffffffffffffffffffffffffffffffffffffffff166370a08231306040518263ffffffff1660e01b81526004016124ed9190613acd565b602060405180830381865afa158015612508573d5f5f3e3d5ffd5b505050506040513d601f19601f8201168201806040525081019061252c9190613db2565b90505f60095f9054906101000a900467ffffffffffffffff1667ffffffffffffffff164261255a91906140cb565b90505f61256983600754612f74565b90505f612596838361257b9190613fc5565b670de0b6b3a7640000600754612b659092919063ffffffff16565b9050806007546125a69190613e0a565b9450505050505b90565b5f61260060016125be610c82565b6125c89190613e0a565b6125d0612883565b600a6125dc919061453e565b6125e4610ec0565b6125ee9190613e0a565b848661303d909392919063ffffffff16565b905092915050565b5f33905090565b61261c838383600161308a565b505050565b5f61267161262d612883565b600a612639919061453e565b612641610ec0565b61264b9190613e0a565b6001612655610c82565b61265f9190613e0a565b848661303d909392919063ffffffff16565b905092915050565b612681612608565b73ffffffffffffffffffffffffffffffffffffffff1661269f611540565b73ffffffffffffffffffffffffffffffffffffffff16146126fe576126c2612608565b6040517f118cdaa70000000000000000000000000000000000000000000000000000000081526004016126f59190613acd565b60405180910390fd5b565b5f61270b8484612304565b90507fffffffffffffffffffffffffffffffffffffffffffffffffffffffffffffffff81101561278d578181101561277e578281836040517ffb8f41b200000000000000000000000000000000000000000000000000000000815260040161277593929190614133565b60405180910390fd5b61278c84848484035f61308a565b5b50505050565b5f73ffffffffffffffffffffffffffffffffffffffff168373ffffffffffffffffffffffffffffffffffffffff1603612803575f6040517f96c6fd1e0000000000000000000000000000000000000000000000000000000081526004016127fa9190613acd565b60405180910390fd5b5f73ffffffffffffffffffffffffffffffffffffffff168273ffffffffffffffffffffffffffffffffffffffff1603612873575f6040517fec442f0500000000000000000000000000000000000000000000000000000000815260040161286a9190613acd565b60405180910390fd5b61287e838383613259565b505050565b5f5f905090565b612892613472565b6002600681905550565b60095f9054906101000a900467ffffffffffffffff1667ffffffffffffffff164214806128ca57505f600754145b156128fc574260095f6101000a81548167ffffffffffffffff021916908367ffffffffffffffff160217905550612a68565b5f60095f9054906101000a900467ffffffffffffffff1667ffffffffffffffff164261292891906140cb565b90505f612933610f4f565b73ffffffffffffffffffffffffffffffffffffffff166370a08231306040518263ffffffff1660e01b815260040161296b9190613acd565b602060405180830381865afa158015612986573d5f5f3e3d5ffd5b505050506040513d601f19601f820116820180604052508101906129aa9190613db2565b90505f6129b982600754612f74565b90505f83826129c89190613fc5565b90505f6129ea82670de0b6b3a7640000600754612b659092919063ffffffff16565b90508060075f8282546129fd9190613e0a565b92505081905550612a2382670de0b6b3a7640000600854612b659092919063ffffffff16565b60085f828254612a339190613e0a565b925050819055504260095f6101000a81548167ffffffffffffffff021916908367ffffffffffffffff16021790555050505050505b565b612a788484848460016134b0565b612ab957836040517f5274afe7000000000000000000000000000000000000000000000000000000008152600401612ab09190613acd565b60405180910390fd5b50505050565b5f60105f9054906101000a900473ffffffffffffffffffffffffffffffffffffffff1673ffffffffffffffffffffffffffffffffffffffff166341976e09612b05610f4f565b6040518263ffffffff1660e01b8152600401612b219190613acd565b602060405180830381865afa158015612b3c573d5f5f3e3d5ffd5b505050506040513d601f19601f82011682018060405250810190612b609190613db2565b905090565b5f5f5f612b728686613521565b915091505f8203612b9757838181612b8d57612b8c614006565b5b0492505050612c3d565b818411612bb657612bb5612bb05f86146012601161353e565b613557565b5b5f8486880990508181118303925080820391505f855f038616905080860495508083049250600181825f0304019050808402831792505f600287600302189050808702600203810290508087026002038102905080870260020381029050808702600203810290508087026002038102905080870260020381029050808402955050505050505b9392505050565b5f60105f9054906101000a900473ffffffffffffffffffffffffffffffffffffffff1673ffffffffffffffffffffffffffffffffffffffff166341976e09612c8a613568565b6040518263ffffffff1660e01b8152600401612ca69190613acd565b602060405180830381865afa158015612cc1573d5f5f3e3d5ffd5b505050506040513d601f19601f82011682018060405250810190612ce59190613db2565b905090565b6001600681905550565b612d07612cff610f4f565b853085612a6a565b612d1183826135fc565b8273ffffffffffffffffffffffffffffffffffffffff168473ffffffffffffffffffffffffffffffffffffffff167fdcbc1c05240f31ff3ad067ef1ee35ce4997762752e3a095284754544f4c709d78484604051612d70929190614213565b60405180910390a350505050565b5f60055f9054906101000a900473ffffffffffffffffffffffffffffffffffffffff1690508160055f6101000a81548173ffffffffffffffffffffffffffffffffffffffff021916908373ffffffffffffffffffffffffffffffffffffffff1602179055508173ffffffffffffffffffffffffffffffffffffffff168173ffffffffffffffffffffffffffffffffffffffff167f8be0079c531659141344cd1fd0a4f28419497f9722a3daafe3b4186f6b6457e060405160405180910390a35050565b8273ffffffffffffffffffffffffffffffffffffffff168573ffffffffffffffffffffffffffffffffffffffff1614612e8057612e7f838683612700565b5b612e8a838261367b565b612e9c612e95610f4f565b8584612f21565b8273ffffffffffffffffffffffffffffffffffffffff168473ffffffffffffffffffffffffffffffffffffffff168673ffffffffffffffffffffffffffffffffffffffff167ffbde797d201c681b91056529119e0b02407c7bb96a4a2c75c01fc9667232c8db8585604051612f12929190614213565b60405180910390a45050505050565b612f2e83838360016136fa565b612f6f57826040517f5274afe7000000000000000000000000000000000000000000000000000000008152600401612f669190613acd565b60405180910390fd5b505050565b5f5f612f80848461375c565b9050600d548111612fc157670de0b6b3a764000081600b54612fa29190613fc5565b612fac9190614033565b600a54612fb99190613e0a565b915050613037565b5f670de0b6b3a7640000600d54600b54612fdb9190613fc5565b612fe59190614033565b600a54612ff29190613e0a565b90505f600d548361300391906140cb565b9050670de0b6b3a764000081600c5461301c9190613fc5565b6130269190614033565b826130319190613e0a565b93505050505b92915050565b5f61306b61304a836137b4565b801561306657505f848061306157613060614006565b5b868809115b6137e1565b613076868686612b65565b6130809190613e0a565b9050949350505050565b5f73ffffffffffffffffffffffffffffffffffffffff168473ffffffffffffffffffffffffffffffffffffffff16036130fa575f6040517fe602df050000000000000000000000000000000000000000000000000000000081526004016130f19190613acd565b60405180910390fd5b5f73ffffffffffffffffffffffffffffffffffffffff168373ffffffffffffffffffffffffffffffffffffffff160361316a575f6040517f94280d620000000000000000000000000000000000000000000000000000000081526004016131619190613acd565b60405180910390fd5b8160015f8673ffffffffffffffffffffffffffffffffffffffff1673ffffffffffffffffffffffffffffffffffffffff1681526020019081526020015f205f8573ffffffffffffffffffffffffffffffffffffffff1673ffffffffffffffffffffffffffffffffffffffff1681526020019081526020015f20819055508015613253578273ffffffffffffffffffffffffffffffffffffffff168473ffffffffffffffffffffffffffffffffffffffff167f8c5be1e5ebec7d5bd14f71427d1e84f3dd0314c0f7b2291e5b200ac8c7c3b9258460405161324a9190613804565b60405180910390a35b50505050565b5f73ffffffffffffffffffffffffffffffffffffffff168373ffffffffffffffffffffffffffffffffffffffff16036132a9578060025f82825461329d9190613e0a565b92505081905550613377565b5f5f5f8573ffffffffffffffffffffffffffffffffffffffff1673ffffffffffffffffffffffffffffffffffffffff1681526020019081526020015f2054905081811015613332578381836040517fe450d38c00000000000000000000000000000000000000000000000000000000815260040161332993929190614133565b60405180910390fd5b8181035f5f8673ffffffffffffffffffffffffffffffffffffffff1673ffffffffffffffffffffffffffffffffffffffff1681526020019081526020015f2081905550505b5f73ffffffffffffffffffffffffffffffffffffffff168273ffffffffffffffffffffffffffffffffffffffff16036133be578060025f8282540392505081905550613408565b805f5f8473ffffffffffffffffffffffffffffffffffffffff1673ffffffffffffffffffffffffffffffffffffffff1681526020019081526020015f205f82825401925050819055505b8173ffffffffffffffffffffffffffffffffffffffff168373ffffffffffffffffffffffffffffffffffffffff167fddf252ad1be2c89b69c2b068fc378daa952ba7f163c4a11628f55a4df523b3ef836040516134659190613804565b60405180910390a3505050565b6002600654036134ae576040517f3ee5aeb500000000000000000000000000000000000000000000000000000000815260040160405180910390fd5b565b5f5f6323b872dd60e01b9050604051815f525f1960601c87166004525f1960601c86166024528460445260205f60645f5f8c5af1925060015f5114831661350e578383151615613502573d5f823e3d81fd5b5f883b113d1516831692505b806040525f606052505095945050505050565b5f5f5f198385098385029150818110828203039250509250929050565b5f613548846137e1565b82841802821890509392505050565b634e487b715f52806020526024601cfd5b5f600f5f9054906101000a900473ffffffffffffffffffffffffffffffffffffffff1673ffffffffffffffffffffffffffffffffffffffff1663b2016bd46040518163ffffffff1660e01b8152600401602060405180830381865afa1580156135d3573d5f5f3e3d5ffd5b505050506040513d601f19601f820116820180604052508101906135f7919061459c565b905090565b5f73ffffffffffffffffffffffffffffffffffffffff168273ffffffffffffffffffffffffffffffffffffffff160361366c575f6040517fec442f050000000000000000000000000000000000000000000000000000000081526004016136639190613acd565b60405180910390fd5b6136775f8383613259565b5050565b5f73ffffffffffffffffffffffffffffffffffffffff168273ffffffffffffffffffffffffffffffffffffffff16036136eb575f6040517f96c6fd1e0000000000000000000000000000000000000000000000000000000081526004016136e29190613acd565b60405180910390fd5b6136f6825f83613259565b5050565b5f5f63a9059cbb60e01b9050604051815f525f1960601c86166004528460245260205f60445f5f8b5af1925060015f5114831661374e578383151615613742573d5f823e3d81fd5b5f873b113d1516831692505b806040525050949350505050565b5f5f820361376c575f90506137ae565b5f82846137799190613e0a565b90505f810361378b575f9150506137ae565b80670de0b6b3a7640000846137a09190613fc5565b6137aa9190614033565b9150505b92915050565b5f600160028360038111156137cc576137cb6145c7565b5b6137d691906145f4565b60ff16149050919050565b5f8115159050919050565b5f819050919050565b6137fe816137ec565b82525050565b5f6020820190506138175f8301846137f5565b92915050565b5f81519050919050565b5f82825260208201905092915050565b8281835e5f83830152505050565b5f601f19601f8301169050919050565b5f61385f8261381d565b6138698185613827565b9350613879818560208601613837565b61388281613845565b840191505092915050565b5f6020820190508181035f8301526138a58184613855565b905092915050565b5f5ffd5b6138ba816137ec565b81146138c4575f5ffd5b50565b5f813590506138d5816138b1565b92915050565b5f602082840312156138f0576138ef6138ad565b5b5f6138fd848285016138c7565b91505092915050565b5f73ffffffffffffffffffffffffffffffffffffffff82169050919050565b5f61392f82613906565b9050919050565b61393f81613925565b8114613949575f5ffd5b50565b5f8135905061395a81613936565b92915050565b5f5f60408385031215613976576139756138ad565b5b5f6139838582860161394c565b9250506020613994858286016138c7565b9150509250929050565b5f8115159050919050565b6139b28161399e565b82525050565b5f6020820190506139cb5f8301846139a9565b92915050565b5f5f604083850312156139e7576139e66138ad565b5b5f6139f48582860161394c565b9250506020613a058582860161394c565b9150509250929050565b5f5f5f60608486031215613a2657613a256138ad565b5b5f613a338682870161394c565b9350506020613a448682870161394c565b9250506040613a55868287016138c7565b9150509250925092565b5f60208284031215613a7457613a736138ad565b5b5f613a818482850161394c565b91505092915050565b5f60ff82169050919050565b613a9f81613a8a565b82525050565b5f602082019050613ab85f830184613a96565b92915050565b613ac781613925565b82525050565b5f602082019050613ae05f830184613abe565b92915050565b5f5f5f60608486031215613afd57613afc6138ad565b5b5f613b0a8682870161394c565b9350506020613b1b868287016138c7565b9250506040613b2c8682870161394c565b9150509250925092565b5f5f60408385031215613b4c57613b4b6138ad565b5b5f613b59858286016138c7565b9250506020613b6a8582860161394c565b9150509250929050565b5f67ffffffffffffffff82169050919050565b613b9081613b74565b82525050565b5f602082019050613ba95f830184613b87565b92915050565b5f819050919050565b5f613bd2613bcd613bc884613906565b613baf565b613906565b9050919050565b5f613be382613bb8565b9050919050565b5f613bf482613bd9565b9050919050565b613c0481613bea565b82525050565b5f602082019050613c1d5f830184613bfb565b92915050565b5f5f5f5f60808587031215613c3b57613c3a6138ad565b5b5f613c48878288016138c7565b9450506020613c59878288016138c7565b9350506040613c6a878288016138c7565b9250506060613c7b878288016138c7565b91505092959194509250565b5f5f5f60608486031215613c9e57613c9d6138ad565b5b5f613cab868287016138c7565b9350506020613cbc8682870161394c565b9250506040613ccd8682870161394c565b9150509250925092565b5f5f60408385031215613ced57613cec6138ad565b5b5f613cfa858286016138c7565b9250506020613d0b858286016138c7565b9150509250929050565b5f5f5f60608486031215613d2c57613d2b6138ad565b5b5f613d39868287016138c7565b9350506020613d4a868287016138c7565b9250506040613d5b868287016138c7565b9150509250925092565b5f613d6f82613bd9565b9050919050565b613d7f81613d65565b82525050565b5f602082019050613d985f830184613d76565b92915050565b5f81519050613dac816138b1565b92915050565b5f60208284031215613dc757613dc66138ad565b5b5f613dd484828501613d9e565b91505092915050565b7f4e487b71000000000000000000000000000000000000000000000000000000005f52601160045260245ffd5b5f613e14826137ec565b9150613e1f836137ec565b9250828201905080821115613e3757613e36613ddd565b5b92915050565b7f4e487b71000000000000000000000000000000000000000000000000000000005f52602260045260245ffd5b5f6002820490506001821680613e8157607f821691505b602082108103613e9457613e93613e3d565b5b50919050565b5f604082019050613ead5f830185613abe565b613eba6020830184613abe565b9392505050565b5f613ecb82613a8a565b9150613ed683613a8a565b9250828201905060ff811115613eef57613eee613ddd565b5b92915050565b7f6e6f7420696e74656772617465640000000000000000000000000000000000005f82015250565b5f613f29600e83613827565b9150613f3482613ef5565b602082019050919050565b5f6020820190508181035f830152613f5681613f1d565b9050919050565b7f616d6f756e743d300000000000000000000000000000000000000000000000005f82015250565b5f613f91600883613827565b9150613f9c82613f5d565b602082019050919050565b5f6020820190508181035f830152613fbe81613f85565b9050919050565b5f613fcf826137ec565b9150613fda836137ec565b9250828202613fe8816137ec565b91508282048414831517613fff57613ffe613ddd565b5b5092915050565b7f4e487b71000000000000000000000000000000000000000000000000000000005f52601260045260245ffd5b5f61403d826137ec565b9150614048836137ec565b92508261405857614057614006565b5b828204905092915050565b7f6865616c746879000000000000000000000000000000000000000000000000005f82015250565b5f614097600783613827565b91506140a282614063565b602082019050919050565b5f6020820190508181035f8301526140c48161408b565b9050919050565b5f6140d5826137ec565b91506140e0836137ec565b92508282039050818111156140f8576140f7613ddd565b5b92915050565b5f6060820190506141115f830186613abe565b61411e60208301856137f5565b61412b6040830184613abe565b949350505050565b5f6060820190506141465f830186613abe565b61415360208301856137f5565b61416060408301846137f5565b949350505050565b7f6f7074696d616c3e3165313800000000000000000000000000000000000000005f82015250565b5f61419c600c83613827565b91506141a782614168565b602082019050919050565b5f6020820190508181035f8301526141c981614190565b9050919050565b5f6080820190506141e35f8301876137f5565b6141f060208301866137f5565b6141fd60408301856137f5565b61420a60608301846137f5565b95945050505050565b5f6040820190506142265f8301856137f5565b61423360208301846137f5565b9392505050565b7f696e73756666696369656e74206c6971756964697479000000000000000000005f82015250565b5f61426e601683613827565b91506142798261423a565b602082019050919050565b5f6020820190508181035f83015261429b81614262565b9050919050565b7f63617000000000000000000000000000000000000000000000000000000000005f82015250565b5f6142d6600383613827565b91506142e1826142a2565b602082019050919050565b5f6020820190508181035f830152614303816142ca565b9050919050565b7f4c545600000000000000000000000000000000000000000000000000000000005f82015250565b5f61433e600383613827565b91506143498261430a565b602082019050919050565b5f6020820190508181035f83015261436b81614332565b9050919050565b7f696e76616c6964207468726573686f6c647300000000000000000000000000005f82015250565b5f6143a6601283613827565b91506143b182614372565b602082019050919050565b5f6020820190508181035f8301526143d38161439a565b9050919050565b5f6060820190506143ed5f8301866137f5565b6143fa60208301856137f5565b61440760408301846137f5565b949350505050565b5f8160011c9050919050565b5f5f8291508390505b6001851115614464578086048111156144405761443f613ddd565b5b600185161561444f5780820291505b808102905061445d8561440f565b9450614424565b94509492505050565b5f8261447c5760019050614537565b81614489575f9050614537565b816001811461449f57600281146144a9576144d8565b6001915050614537565b60ff8411156144bb576144ba613ddd565b5b8360020a9150848211156144d2576144d1613ddd565b5b50614537565b5060208310610133831016604e8410600b841016171561450d5782820a90508381111561450857614507613ddd565b5b614537565b61451a848484600161441b565b9250905081840481111561453157614530613ddd565b5b81810290505b9392505050565b5f614548826137ec565b915061455383613a8a565b92506145807fffffffffffffffffffffffffffffffffffffffffffffffffffffffffffffffff848461446d565b905092915050565b5f8151905061459681613936565b92915050565b5f602082840312156145b1576145b06138ad565b5b5f6145be84828501614588565b91505092915050565b7f4e487b71000000000000000000000000000000000000000000000000000000005f52602160045260245ffd5b5f6145fe82613a8a565b915061460983613a8a565b92508261461957614618614006565b5b82820690509291505056fea2646970667358221220a9c37a9183635963bcb3d8ba9e1658bd6d84dfd4e970970fd0e20ef198407e4c64736f6c634300081c0033",
    "linkReferences": {}
  },
  "methodIdentifiers": {
    "SECONDS_PER_YEAR()": "e6a69ab8",
    "allowance(address,address)": "dd62ed3e",
    "approve(address,uint256)": "095ea7b3",
    "asset()": "38d52e0f",
    "assetsOf(address)": "2c62fa10",
    "balanceOf(address)": "70a08231",
    "baseRatePerSecond()": "d90e0264",
    "borrow(uint256)": "c5ebeaec",
    "borrowCap()": "44d9dca6",
    "borrowIndex()": "aa5af0fd",
    "collateral()": "d8dfeb45",
    "collateralAmount(address)": "b2cd0fdc",
    "collateralValueE18(address)": "f00d9ab1",
    "convertToAssets(uint256)": "07a2d13a",
    "convertToShares(uint256)": "c6e6f592",
    "debtOf(address)": "d283e75f",
    "debtValueE18(address)": "7748f5c6",
    "decimals()": "313ce567",
    "deposit(uint256,address)": "6e553f65",
    "isHealthy(address)": "d4d9bc68",
    "lastAccrual()": "7b3baab4",
    "liqBonusBps()": "0c0e717b",
    "liqThresholdBps()": "8eb80efe",
    "liquidate(address,uint256,address)": "4914c008",
    "ltvBps()": "276b7377",
    "maxDeposit(address)": "402d267d",
    "maxMint(address)": "c63d75b6",
    "maxRedeem(address)": "d905777e",
    "maxWithdraw(address)": "ce96cb77",
    "minCash()": "bdb30aa0",
    "mint(uint256,address)": "94bf804d",
    "name()": "06fdde03",
    "optimalUtilization()": "6290cd1c",
    "oracle()": "7dc0d1d0",
    "owner()": "8da5cb5b",
    "previewAccruedInterest()": "c78e2919",
    "previewAccruedInterestOf(address)": "c09f28df",
    "previewDeposit(uint256)": "ef8b30f7",
    "previewLenderAccruedInterestOf(address)": "c6770415",
    "previewMint(uint256)": "b3d7f6b9",
    "previewRedeem(uint256)": "4cdad506",
    "previewWithdraw(uint256)": "0a28a477",
    "principalScaled(address)": "4c642be6",
    "redeem(uint256,address,address)": "ba087652",
    "renounceOwnership()": "715018a6",
    "repay(uint256,address)": "acb70815",
    "setIntegrations(address,address)": "10af06a2",
    "setLiquidityParams(uint256,uint256)": "b857b063",
    "setRateParams(uint256,uint256,uint256,uint256)": "b02867c3",
    "setRiskParams(uint256,uint256,uint256)": "ced65b01",
    "slope1PerSecond()": "d726ae98",
    "slope2PerSecond()": "6ec6df0e",
    "symbol()": "95d89b41",
    "totalAssets()": "01e1d114",
    "totalBorrows()": "47bd3718",
    "totalSupply()": "18160ddd",
    "transfer(address,uint256)": "a9059cbb",
    "transferFrom(address,address,uint256)": "23b872dd",
    "transferOwnership(address)": "f2fde38b",
    "withdraw(uint256,address,address)": "b460af94"
  },
  "id": 37
}