{
  "abi": [
    {
      "type": "constructor",
      "inputs": [],
      "stateMutability": "nonpayable"
    },
    {
      "type": "function",
      "name": "getPrice",
      "inputs": [
        {
          "name": "token",
          "type": "address",
          "internalType": "address"
        }
      ],
      "outputs": [
        {
          "name": "",
          "type": "uint256",
          "internalType": "uint256"
        }
      ],
      "stateMutability": "view"
    },
    {
      "type": "function",
      "name": "owner",
      "inputs": [],
      "outputs": [
        {
          "name": "",
          "type": "address",
          "internalType": "address"
        }
      ],
      "stateMutability": "view"
    },
    {
      "type": "function",
      "name": "prices",
      "inputs": [
        {
          "name": "",
          "type": "address",
          "internalType": "address"
        }
      ],
      "outputs": [
        {
          "name": "",
          "type": "uint256",
          "internalType": "uint256"
        }
      ],
      "stateMutability": "view"
    },
    {
      "type": "function",
      "name": "renounceOwnership",
      "inputs": [],
      "outputs": [],
      "stateMutability": "nonpayable"
    },
    {
      "type": "function",
      "name": "setPrice",
      "inputs": [
        {
          "name": "token",
          "type": "address",
          "internalType": "address"
        },
        {
          "name": "priceE18",
          "type": "uint256",
          "internalType": "uint256"
        }
      ],
      "outputs": [],
      "stateMutability": "nonpayable"
    },
    {
      "type": "function",
      "name": "transferOwnership",
      "inputs": [
        {
          "name": "newOwner",
          "type": "address",
          "internalType": "address"
        }
      ],
      "outputs": [],
      "stateMutability": "nonpayable"
    },
    {
      "type": "event",
      "name": "OwnershipTransferred",
      "inputs": [
        {
          "name": "previousOwner",
          "type": "address",
          "indexed": true,
          "internalType": "address"
        },
        {
          "name": "newOwner",
          "type": "address",
          "indexed": true,
          "internalType": "address"
        }
      ],
      "anonymous": false
    },
    {
      "type": "event",
      "name": "PriceUpdated",
      "inputs": [
        {
          "name": "token",
          "type": "address",
          "indexed": true,
          "internalType": "address"
        },
        {
          "name": "priceE18",
          "type": "uint256",
          "indexed": false,
          "internalType": "uint256"
        }
      ],
      "anonymous": false
    },
    {
      "type": "error",
      "name": "OwnableInvalidOwner",
      "inputs": [
        {
          "name": "owner",
          "type": "address",
          "internalType": "address"
        }
      ]
    },
    {
      "type": "error",
      "name": "OwnableUnauthorizedAccount",
      "inputs": [
        {
          "name": "account",
          "type": "address",
          "internalType": "address"
        }
      ]
    }
  ],
  "bytecode": {
    "object": "0x608060405234801561000f575f5ffd5b50335f73ffffffffffffffffffffffffffffffffffffffff168173ffffffffffffffffffffffffffffffffffffffff1603610081575f6040517f1e4fbdf70000000000000000000000000000000000000000000000000000000081526004016100789190610196565b60405180910390fd5b6100908161009660201b60201c565b506101af565b5f5f5f9054906101000a900473ffffffffffffffffffffffffffffffffffffffff169050815f5f6101000a81548173ffffffffffffffffffffffffffffffffffffffff021916908373ffffffffffffffffffffffffffffffffffffffff1602179055508173ffffffffffffffffffffffffffffffffffffffff168173ffffffffffffffffffffffffffffffffffffffff167f8be0079c531659141344cd1fd0a4f28419497f9722a3daafe3b4186f6b6457e060405160405180910390a35050565b5f73ffffffffffffffffffffffffffffffffffffffff82169050919050565b5f61018082610157565b9050919050565b61019081610176565b82525050565b5f6020820190506101a95f830184610187565b92915050565b6107e6806101bc5f395ff3fe608060405234801561000f575f5ffd5b506004361061005f575f3560e01c8062e4768b1461006357806341976e091461007f578063715018a6146100af5780638da5cb5b146100b9578063cfed246b146100d7578063f2fde38b14610107575b5f5ffd5b61007d600480360381019061007891906105af565b610123565b005b610099600480360381019061009491906105ed565b61026f565b6040516100a69190610627565b60405180910390f35b6100b76102fc565b005b6100c161030f565b6040516100ce919061064f565b60405180910390f35b6100f160048036038101906100ec91906105ed565b610336565b6040516100fe9190610627565b60405180910390f35b610121600480360381019061011c91906105ed565b61034b565b005b61012b6103cf565b5f73ffffffffffffffffffffffffffffffffffffffff168273ffffffffffffffffffffffffffffffffffffffff1603610199576040517f08c379a0000000000000000000000000000000000000000000000000000000008152600401610190906106c2565b60405180910390fd5b5f81116101db576040517f08c379a00000000000000000000000000000000000000000000000000000000081526004016101d29061072a565b60405180910390fd5b8060015f8473ffffffffffffffffffffffffffffffffffffffff1673ffffffffffffffffffffffffffffffffffffffff1681526020019081526020015f20819055508173ffffffffffffffffffffffffffffffffffffffff167f0d86730737b142fc160892fa8a0f2db687a92a0e294d1ad70624cf5acef03b84826040516102639190610627565b60405180910390a25050565b5f5f60015f8473ffffffffffffffffffffffffffffffffffffffff1673ffffffffffffffffffffffffffffffffffffffff1681526020019081526020015f205490505f81116102f3576040517f08c379a00000000000000000000000000000000000000000000000000000000081526004016102ea90610792565b60405180910390fd5b80915050919050565b6103046103cf565b61030d5f610456565b565b5f5f5f9054906101000a900473ffffffffffffffffffffffffffffffffffffffff16905090565b6001602052805f5260405f205f915090505481565b6103536103cf565b5f73ffffffffffffffffffffffffffffffffffffffff168173ffffffffffffffffffffffffffffffffffffffff16036103c3575f6040517f1e4fbdf70000000000000000000000000000000000000000000000000000000081526004016103ba919061064f565b60405180910390fd5b6103cc81610456565b50565b6103d7610517565b73ffffffffffffffffffffffffffffffffffffffff166103f561030f565b73ffffffffffffffffffffffffffffffffffffffff161461045457610418610517565b6040517f118cdaa700000000000000000000000000000000000000000000000000000000815260040161044b919061064f565b60405180910390fd5b565b5f5f5f9054906101000a900473ffffffffffffffffffffffffffffffffffffffff169050815f5f6101000a81548173ffffffffffffffffffffffffffffffffffffffff021916908373ffffffffffffffffffffffffffffffffffffffff1602179055508173ffffffffffffffffffffffffffffffffffffffff168173ffffffffffffffffffffffffffffffffffffffff167f8be0079c531659141344cd1fd0a4f28419497f9722a3daafe3b4186f6b6457e060405160405180910390a35050565b5f33905090565b5f5ffd5b5f73ffffffffffffffffffffffffffffffffffffffff82169050919050565b5f61054b82610522565b9050919050565b61055b81610541565b8114610565575f5ffd5b50565b5f8135905061057681610552565b92915050565b5f819050919050565b61058e8161057c565b8114610598575f5ffd5b50565b5f813590506105a981610585565b92915050565b5f5f604083850312156105c5576105c461051e565b5b5f6105d285828601610568565b92505060206105e38582860161059b565b9150509250929050565b5f602082840312156106025761060161051e565b5b5f61060f84828501610568565b91505092915050565b6106218161057c565b82525050565b5f60208201905061063a5f830184610618565b92915050565b61064981610541565b82525050565b5f6020820190506106625f830184610640565b92915050565b5f82825260208201905092915050565b7f746f6b656e3d30000000000000000000000000000000000000000000000000005f82015250565b5f6106ac600783610668565b91506106b782610678565b602082019050919050565b5f6020820190508181035f8301526106d9816106a0565b9050919050565b7f70726963653d30000000000000000000000000000000000000000000000000005f82015250565b5f610714600783610668565b915061071f826106e0565b602082019050919050565b5f6020820190508181035f83015261074181610708565b9050919050565b7f6e6f2070726963650000000000000000000000000000000000000000000000005f82015250565b5f61077c600883610668565b915061078782610748565b602082019050919050565b5f6020820190508181035f8301526107a981610770565b905091905056fea26469706673582212208b716e5f29d49a6015f4f31df41b31170a5c749f4c32a65f27e9bd4996c2794264736f6c634300081c0033",
    "linkReferences": {}
  },
  "methodIdentifiers": {
    "getPrice(address)": "41976e09",
    "owner()": "8da5cb5b",
    "prices(address)": "cfed246b",
    "renounceOwnership()": "715018a6",
    "setPrice(address,uint256)": "00e4768b",
    "transferOwnership(address)": "f2fde38b"
  },
  "id": 38
}